S01A0000696E736572744F734E616D65486572654F532E737265630C
S11300000C945A000C9464000C9464000C946400E6
S11300100C9464000C9464000C9464000C946400CC
S11300200C9464000C9464000C9464000C946400BC
S11300300C9464000C9464000C9464000C946400AC
S11300400C9464000C9464000C9464000C9464009C
S11300500C9464000C9464000C9464000C9464008C
S11300600C9464000C9464000C9464000C9464007C
S11300700C9464000C9464000C9464000C9464006C
S11300800C9464000C9464000C9464000C9464005C
S11300900C9464000C9464000C9464000C9464004C
S11300A00C9464000C9464000C946A000C94640036
S11300B00C94640011241FBECFEFD8E0DEBFCDBF87
S11300C00E9452010C9470010C9400001D9A089532
S11300D00C946800FF93EF932F931F930F931FB615
S11300E01F920F92E0E0F4E01191208100E2109F52
S11300F0E0E0F2E0E00DF11D0F9001920F9001920B
S11301002192319241925192619271928192919293
S1130110A192B192C192D192E192F1920F90019287
S11301200F9001920F9001923193419351936193F7
S1130130719381939193A193B1930F9001920F9036
S11301400192EDB7FEB7FF93EF9300E1109FE8E053
S1130150F1E0E00DF11D0F901F90019211920F90AC
S11301601F90019211921395121708F01127E0E0E5
S1130170F4E0108300E1109FEAE0F1E0E00DF11DEE
S113018001900F9200800F9234970190008000E25A
S1130190109FE0E0F2E0E00DF11D019011901FBE10
S11301A02190319041905190619071908190919003
S11301B0A190B190C190D190E190F19001911191F1
S11301C021913191419151916191719181919191DB
S11301D0A191B191C191D1911190F081E12D11249E
S11301E018952D9AFECF2D98FECF1092A0008AE08C
S11301F08093A10080ED97E09093A9008093A800DC
S113020082E0809372000895CF93DF93CDB7DEB779
S113021060970FB6F894DEBF0FBECDBFAC019091CE
S11302200104692F70E09B0122953295307F3227BB
S1130230207F322720503F4F80E1F901DE011196E3
S113024001900D928A95E1F77A8369835C834B83ED
S11302506BEB7AEA7E836D8362E070E078876F836C
S113026065E075E07A8769875C874B874DED5CECC8
S11302705E874D874FEF5EEE588B4F8780E1FE011E
S11302803196D90101900D928A95E1F79F5F909381
S1130290010460960FB6F894DEBF0FBECDBFDF91A8
S11302A0CF9108951092000410920104689A259A3F
S11302B0109202040E94F50081EF90E00E94040174
S11302C083EF90E00E9404017894E0910201F091A0
S11302D003010995809102048F5F80930204FACF91
S10702E0F894FFCFBC
S9030000FC
