:100000000C945A000C9464000C9464000C94DE0070
:100010000C9464000C9464000C9464000C946400D0
:100020000C9464000C9464000C9464000C946400C0
:100030000C9464000C9464000C9464000C946400B0
:100040000C9464000C9464000C9464000C946400A0
:100050000C9464000C9464000C9464000C94640090
:100060000C9464000C9464000C9464000C942C01B7
:100070000C9464000C9464000C9464000C94640070
:100080000C9464000C9464000C9464000C94640060
:100090000C9464000C9464000C9464000C94640050
:1000A0000C9464000C9464000C946A000C9464003A
:1000B0000C94640011241FBECFEFD8E0DEBFCDBF8B
:1000C0000E9437020C9485030C9400001D9A089539
:1000D0000C9468001FB6FF93EF93DF93CF93BF9309
:1000E000AF939F938F937F936F935F934F933F93C0
:1000F0002F931F930F93FF92EF92DF92CF92BF92B5
:10010000AF929F928F927F926F925F924F923F92A7
:100110002F921F920F92E0E0F4E011912081EDB751
:10012000FEB7FF93EF9300E1109FE8E0F1E0E00DF0
:10013000F11D0F901F90019211920E940103E0E0C7
:10014000F4E0108100E1109FE8E0F1E0E00DF11D26
:1001500001900F9200800F921F900F901EBE0DBE57
:100160000F901F901FBE2F903F904F905F906F9009
:100170007F908F909F90AF90BF90CF90DF90EF9047
:10018000FF900F911F912F913F914F915F916F9130
:100190007F918F919F91AF91BF91CF91DF91EF911F
:1001A000FF91112418952D98FECF89E08093680067
:1001B00081E080936B008093730008951F920F92EB
:1001C0000FB60F9211242F933F934F935F936F932A
:1001D0007F938F939F93189B22C080910804709106
:1001E000090460910A0450910B0440910C04309171
:1001F0000D0420910E0490910F04826080930804F6
:100200007093090460930A0450930B0440930C0408
:1002100030930D0420930E0490930F0410C010929D
:1002200008041092090410920A0410920B04109210
:100230000C0410920D0410920E0410920F049F9162
:100240008F917F916F915F914F913F912F910F907F
:100250000FBE0F901F9018951F920F920FB60F921E
:1002600011242F933F934F935F936F937F938F93BB
:100270009F93609922C08091080470910904609155
:100280000A0450910B0440910C0430910D0420910C
:100290000E0490910F048061809308047093090408
:1002A00060930A0450930B0440930C0430930D04A4
:1002B00020930E0490930F0410C010920804109223
:1002C000090410920A0410920B0410920C0410926C
:1002D0000D0410920E0410920F049F918F917F9144
:1002E0006F915F914F913F912F910F900FBE0F90A3
:1002F0001F901895E0E0F1E011921192E11587E06E
:10030000F807D1F708951092A0008AE08093A10029
:1003100088EC90E09093A9008093A80082E08093FD
:1003200072001092A5001092A40008959C01002470
:10033000369527950794369527950794322F202DCB
:10034000A901435E5B4F82959295907F9827807FAD
:100350009827FC01E050FF4F5187408782819381AD
:10036000F901E25CFB4F9083818308950F931F9303
:10037000CF93DF93CDB7DEB760970FB6F894DEBFAB
:100380000FBECDBF8C0180E1E0E0F1E0DE0111960F
:1003900001900D928A95E1F78B819C81892BC9F0A0
:1003A00020E02F5F422F50E0FA01E295F295F07FB6
:1003B000FE27E07FFE27E050FF4F90E1DE0111961F
:1003C00001900D929A95E1F7EB81FC81EF2B49F7B3
:1003D00003C040E050E020E0A091010430E03A8307
:1003E00029831C830B831E821D8281E090E0988705
:1003F0008F83CA01002496958795079496958795D3
:100400000794982F802D835E9B4F9A8789871C873E
:100410000B871E861D86788B6F8780E1A89FD00191
:100420001124A050BF4F80E1FE01319601900D9242
:100430008A95E1F78091050490E08617970710F000
:100440006091050460930504CA010E9496018091A1
:1004500001048F5F8093010460960FB6F894DEBFAD
:100460000FBECDBFDF91CF911F910F9108950E94D4
:10047000D5000E947A01109200041092010410929B
:1004800008041092090410920A0410920B041092AE
:100490000C0410920D0410920E0410920F0487B1F8
:1004A000896087B984B18F6284B98FEF8AB96B9AFA
:1004B0001092020460E070E082E892E00E94B601CF
:1004C00060E170E088E593E00E94B6016EE070E0C4
:1004D00088E593E00E94B6016FE070E083ED90E064
:1004E0000E94B6016DE070E083ED90E00E94B601DD
:1004F0000E9483010E94A200809102048F5F80937A
:100500000204FACFC1E0D0E0F89410920204809186
:100510000204803108F073C0E0910204F0E0DF01D2
:10052000A295B295B07FBA27A07FBA27A050BF4F3F
:10053000B0930704A093060415961C921E9214977C
:1005400016968D919C9117970297C1F520910804FA
:100550003091090440910A0450910B0460910C04FD
:1005600070910D0480910E0490910F04DF01A2950B
:10057000B295B07FBA27A07FBA27A050BF4F1C9674
:100580000D911C911D970E945D03217030E040E0A9
:1005900050E060E070E080E090E0A0E00E9479032D
:1005A00021F1E295F295F07FFE27E07FFE27E050F3
:1005B000FF4F158614861782168217C0E295F295B2
:1005C000F07FFE27E07FFE27E050FF4F8681978176
:1005D000892B59F48091020490E00E949601E091E9
:1005E0000604F0910704D783C683809102048F5FCD
:1005F0008093020480910204803108F48DCF7894B6
:1006000083CF10920304109204041092000481E03E
:100610008093020480910204803190F560E0809123
:10062000020490E0DC01A295B295B07FBA27A07FCA
:10063000BA27A050BF4F14962D913C911597232BAC
:1006400081F4FD01468557852091040430E024178C
:10065000350738F460910204FD0186859785809303
:100660000404809102048F5F80930204809102044D
:100670008031A8F260930004B0930704A0930604AD
:10068000E091000480E1E89FF0011124E050FF4F69
:1006900081E090E0958384830895E091000480E1F7
:1006A000E89FF0011124E050FF4F17821682FFCF20
:1006B0002D9A0E944D0397FB10F8169400080F9393
:1006C000083098F00850232F342F452F562F672FCE
:1006D000782F892F902DF4CF05949795879577954E
:1006E000679557954795379527950A95AAF70F91DE
:1006F00008950024A7FD00942A17300540055005F1
:0E07000060057005800590050895F894FFCF00
:00000001FF
