:100000000C945A000C946C000C946C000C946C00D2
:100010000C946C000C946C000C946C000C946C00B0
:100020000C946C000C946C000C946C000C946C00A0
:100030000C946C000C946C000C946C000C946C0090
:100040000C946C000C946C000C946C000C946C0080
:100050000C946C000C946C000C946C000C946C0070
:100060000C946C000C946C000C946C000C946C0060
:100070000C946C000C946C000C946C000C946C0050
:100080000C946C000C946C000C946C000C946C0040
:100090000C946C000C946C000C946C000C946C0030
:1000A0000C946C000C946C000C9470000C946C001C
:1000B0000C946C0011241FBECFEFD8E0DEBFCDBF83
:1000C00021E0A0E0B1E001C01D92A230B207E1F74B
:1000D0000E94EF000C9402010C9400001D9A0895F8
:1000E0000F921FB61F920F931F932F93EF93FF93BF
:1000F000EDB7FEB73896019010801F920F92FF93D4
:10010000EF93E0E0F4E0119100E1109FEAE0F1E00C
:10011000E00D0024F01D0F9001920F9001920F90BE
:1001200001920F900192FF91EF912F911F910F91EA
:100130001F901FBE11240F9018951D9A089581E0FD
:1001400008951092A0008AE08093A10080ED97E0CE
:100150009093A9008093A80082E080937200089594
:100160000F931F93CF93DF93CDB7DEB72D970FB6C5
:10017000F894DEBF0FBECDBFAC0190910101092FF5
:1001800010E08DE0989F9001112420503F4F8DE0AA
:10019000F901DE01119601900D928A95E1F71A831B
:1001A00009835C834B837E836D8382E08F835B87CF
:1001B0004A878DE0FE013196D90101900D928A9512
:1001C000E1F79F5F909301012D960FB6F894DEBF83
:1001D0000FBECDBFDF91CF911F910F910895109267
:1001E0000004689A259A0E94A10078946FE970E053
:1001F0008DE990E00E94B000809100018F5F8093B4
:080200000001FACFF894FFCFD2
:00000001FF
