:100000000C945A000C946C000C946C000C946C00D2
:100010000C946C000C946C000C946C000C946C00B0
:100020000C946C000C946C000C946C000C946C00A0
:100030000C946C000C946C000C946C000C946C0090
:100040000C946C000C946C000C946C000C946C0080
:100050000C946C000C946C000C946C000C946C0070
:100060000C946C000C946C000C946C000C946C0060
:100070000C946C000C946C000C946C000C946C0050
:100080000C946C000C946C000C946C000C946C0040
:100090000C946C000C946C000C946C000C946C0030
:1000A0000C946C000C946C000C9470000C946C001C
:1000B0000C946C0011241FBECFEFD8E0DEBFCDBF83
:1000C00021E0A0E0B1E001C01D92A230B207E1F74B
:1000D0000E9482000C9439010C9400001D9A08952E
:1000E0000F921FB61F92EF93FF93EDB7FEB73496B2
:1000F00001901080FF91EF9111241F901FBE1124D9
:100100000F901895CF93DF93CDB7DEB78DE290E0D7
:100110002DE230E0F90120812160FC01208384E29E
:1001200090E024E230E0F90120812062FC0120838C
:100130000E94A700789461E371E080E291E00E9460
:10014000C400809101018F5F80930101FACFCF93AA
:10015000DF93CDB7DEB780EA90E0FC01108281EA40
:1001600090E02AE0FC01208388EA90E020ED37E06F
:10017000FC013183208382E790E022E0FC012083B0
:100180000000DF91CF910895CF93DF93CDB7DEB715
:1001900061970FB6F894DEBF0FBECDBF9F878E87E5
:1001A000798B688B80910001282F30E04DE0429FD1
:1001B000C001439F900D112480509F4F2DE0FC0102
:1001C000CE010196DC0101900D922A95E1F7809114
:1001D0000001882F90E09A8389838E859F859C8378
:1001E0008B83888999899E838D8382E08F838E8516
:1001F0009F859B878A8780910001282F30E04DE002
:10020000429FC001439F900D112480509F4F4DE0AD
:100210009E012F5F3F4FF901DC0101900D924A953D
:10022000E1F7809100018F5F8093000100006196EB
:100230000FB6F894DEBF0FBECDBFDF91CF9108950A
:10024000CF93DF93CDB7DEB783E290E023E230E0D7
:10025000F90120812062FC0120830000DF91CF9111
:100260000895CF93DF93CDB7DEB781E0DF91CF91D3
:060270000895F894FFCF91
:00000001FF
