:100000000C945A000C9464000C9464000C946400EA
:100010000C9464000C9464000C9464000C946400D0
:100020000C9464000C9464000C9464000C946400C0
:100030000C9464000C9464000C9464000C946400B0
:100040000C9464000C9464000C9464000C946400A0
:100050000C9464000C9464000C9464000C94640090
:100060000C9464000C9464000C9464000C94640080
:100070000C9464000C9464000C9464000C94640070
:100080000C9464000C9464000C9464000C94640060
:100090000C9464000C9464000C9464000C94640050
:1000A0000C9464000C9464000C947A000C9464002A
:1000B0000C94640011241FBECFEFD8E0DEBFCDBF8B
:1000C0000E9475000C9485000C9400001092A00012
:1000D0008AE08093A10080ED97E09093A90080933F
:1000E000A80082E0809372000895259A0E9466001D
:1000F0007894FFCF1F920F920FB60F9211241D9A82
:0E0100000F900FBE0F901F901895F894FFCF30
:00000001FF
