S01A0000696E736572744F734E616D65486572654F532E737265630C
S11300000C945A000C9464000C9464000C94DE006C
S11300100C9464000C9464000C9464000C946400CC
S11300200C9464000C9464000C9464000C946400BC
S11300300C9464000C9464000C9464000C946400AC
S11300400C9464000C9464000C9464000C9464009C
S11300500C9464000C9464000C9464000C9464008C
S11300600C9464000C9464000C9464000C942C01B3
S11300700C9464000C9464000C9464000C9464006C
S11300800C9464000C9464000C9464000C9464005C
S11300900C9464000C9464000C9464000C9464004C
S11300A00C9464000C9464000C946A000C94640036
S11300B00C94640011241FBECFEFD8E0DEBFCDBF87
S11300C00E942D020C9474030C9400001D9A089550
S11300D00C9468001FB6FF93EF93DF93CF93BF9305
S11300E0AF939F938F937F936F935F934F933F93BC
S11300F02F931F930F93FF92EF92DF92CF92BF92B1
S1130100AF929F928F927F926F925F924F923F92A3
S11301102F921F920F92E0E0F4E011912081EDB74D
S1130120FEB7FF93EF9300E1109FE8E0F1E0E00DEC
S1130130F11D0F901F90019211920E94E602E0E0DF
S1130140F4E0108100E1109FE8E0F1E0E00DF11D22
S113015001900F9200800F921F900F901EBE0DBE53
S11301600F901F901FBE2F903F904F905F906F9005
S11301707F908F909F90AF90BF90CF90DF90EF9043
S1130180FF900F911F912F913F914F915F916F912C
S11301907F918F919F91AF91BF91CF91DF91EF911B
S11301A0FF91112418952D98FECF89E08093680063
S11301B081E080936B008093730008951F920F92E7
S11301C00FB60F9211242F933F934F935F936F9326
S11301D07F938F939F93189B22C080910304709107
S11301E00404609105045091060440910704309181
S11301F008042091090490910A0482608093030406
S11302007093040460930504509306044093070418
S1130210309308042093090490930A0410C01092A8
S11302200304109204041092050410920604109220
S11302300704109208041092090410920A049F9172
S11302408F917F916F915F914F913F912F910F907B
S11302500FBE0F901F9018951F920F920FB60F921A
S113026011242F933F934F935F936F937F938F93B7
S11302709F93609922C0809103047091040460915B
S1130280050450910604409107043091080420911C
S1130290090490910A048061809303047093040418
S11302A060930504509306044093070430930804B4
S11302B02093090490930A0410C01092030410922E
S11302C0040410920504109206041092070410927C
S11302D008041092090410920A049F918F917F914F
S11302E06F915F914F913F912F910F900FBE0F909F
S11302F01F901895E0E0F1E011921192E11587E06A
S1130300F807D1F708951092A0008AE08093A10025
S113031088EC90E09093A9008093A80082E08093F9
S113032072001092A5001092A40008959C0100246C
S1130330369527950794369527950794322F202DC7
S1130340A901435E5B4F82959295907F9827807FA9
S11303509827FC01E050FF4F5187408782819381A9
S1130360F901E25CFB4F9083818308950F931F93FF
S1130370CF93DF93CDB7DEB760970FB6F894DEBFA7
S11303800FBECDBF8C0180E1E0E0F1E0DE0111960B
S113039001900D928A95E1F78B819C81892BC9F09C
S11303A020E02F5F422F50E0FA01E295F295F07FB2
S11303B0FE27E07FFE27E050FF4F90E1DE0111961B
S11303C001900D929A95E1F7EB81FC81EF2B49F7AF
S11303D003C040E050E020E0A091010430E03A8303
S11303E029831C830B831E821D8281E090E0988701
S11303F08F83CA01002496958795079496958795CF
S11304000794982F802D835E9B4F9A8789871C873A
S11304100B871E861D86788B6F8780E1A89FD0018D
S11304201124A050BF4F80E1FE01319601900D923E
S11304308A95E1F7CA010E949601809101048F5FB9
S11304408093010460960FB6F894DEBF0FBECDBF53
S1130450DF91CF911F910F9108950E94D5000E94C2
S11304607A01109200041092010410920304109275
S113047004041092050410920604109207041092CA
S113048008041092090410920A0487B1896087B99C
S113049084B18F6284B98FEF8AB96B9A1092020487
S11304A060E170E08CE692E00E94B60160E170E0E9
S11304B08FE193E00E94B60160E170E083ED90E08B
S11304C00E94B6010E9483010E94A200809102044E
S11304D08F5F80930204FACFC1E0D0E0F8941092C9
S11304E0020480910204803108F06EC0E09102049D
S11304F080E1E89FF0011124E050FF4F868197814D
S11305000297E9F520910304309104044091050415
S113051050910604609107047091080480910904C5
S113052090910A04E0910204A0E1EA9FF0011124F1
S1130530E050FF4F048515850E943803217030E098
S113054040E050E060E070E080E090E0A0E00E94D5
S1130550540381F1E091020480E1E89FF001112449
S1130560E050FF4F15861486E0910204A0E1EA9F53
S1130570F0011124E050FF4F178216821BC0E09156
S1130580020480E1E89FF0011124E050FF4F8681CE
S11305909781892B79F48091020490E00E9496015E
S11305A0E0910204A0E1EA9FF0011124E050FF4F22
S11305B0D783C683809102048F5F80930204809165
S11305C00204803108F492CF789488CFCF93DF93DC
S11305D0C0910104D0E020910004822F90E00196A4
S11305E0BE010E942203282F9927FC01E295F2956F
S11305F0F07FFE27E07FFE27E050FF4F42815381CA
S1130600452B59F382959295907F9827807F982760
S1130610FC01E050FF4F868197810197F1F620930A
S11306200004DF91CF910895E091000480E1E89FF8
S1130630F0011124E050FF4F17821682FFCF2D9A4C
S11306400E94140397FB072E16F4009407D077FD3D
S113065009D00E94600307FC05D03EF49095819573
S11306609F4F0895709561957F4F089597FB10F8FB
S1130670169400080F93083098F00850232F342F55
S1130680452F562F672F782F892F902DF4CF05945F
S113069097958795779567955795479537952795B6
S11306A00A95AAF70F9108950024A7FD00942A172C
S11306B030054005500560057005800590050895D6
S11306C0AA1BBB1B51E107C0AA1FBB1FA617B70774
S11306D010F0A61BB70B881F991F5A95A9F7809590
S10F06E09095BC01CD010895F894FFCF63
S9030000FC
