:100000000C945A000C946C000C946C000C946C00D2
:100010000C946C000C946C000C946C000C946C00B0
:100020000C946C000C946C000C946C000C946C00A0
:100030000C946C000C946C000C946C000C946C0090
:100040000C946C000C946C000C946C000C946C0080
:100050000C946C000C946C000C946C000C946C0070
:100060000C946C000C946C000C946C000C946C0060
:100070000C946C000C946C000C946C000C946C0050
:100080000C946C000C946C000C946C000C946C0040
:100090000C946C000C946C000C946C000C946C0030
:1000A0000C946C000C946C000C9485000C946C0007
:1000B0000C946C0011241FBECFEFD8E0DEBFCDBF83
:1000C00021E0A0E0B1E001C01D92A030B207E1F74D
:1000D0000E947F000C94AA000C9400001D9A0895C1
:1000E0001092A0008AE08093A10080ED97E09093A9
:1000F000A9008093A80082E0809372000895689A16
:10010000259A0E9470007894FFCF1F920F920FB62D
:100110000F9211242F933F934F935F936F937F938D
:100120008F939F93AF93BF93EF93FF93609A0E9437
:100130006E00FF91EF91BF91AF919F918F917F9151
:100140006F915F914F913F912F910F900FBE0F9044
:080150001F901895F894FFCFF1
:00000001FF
