S01A0000696E736572744F734E616D65486572654F532E737265630C
S11300000C945A000C9464000C9464000C946400E6
S11300100C9464000C9464000C9464000C946400CC
S11300200C9464000C9464000C9464000C946400BC
S11300300C9464000C9464000C9464000C946400AC
S11300400C9464000C9464000C9464000C9464009C
S11300500C9464000C9464000C9464000C9464008C
S11300600C9464000C9464000C9464000C9464007C
S11300700C9464000C9464000C9464000C9464006C
S11300800C9464000C9464000C9464000C9464005C
S11300900C9464000C9464000C9464000C9464004C
S11300A00C9464000C9464000C946A000C94640036
S11300B00C94640011241FBECFEFD8E0DEBFCDBF87
S11300C00E9462010C94EC010C9400001D9A0895A6
S11300D00C9468001FB6FF93EF93DF93CF93BF9305
S11300E0AF939F938F937F936F935F934F933F93BC
S11300F02F931F930F93FF92EF92DF92CF92BF92B1
S1130100AF929F928F927F926F925F924F923F92A3
S11301102F921F920F92E0E0F4E011912081EDB74D
S1130120FEB7FF93EF9300E1109FE8E0F1E0E00DEC
S1130130F11D0F901F90019211920E94A301E0E023
S1130140F4E0108100E1109FE8E0F1E0E00DF11D22
S113015001900F9200800F921F900F901EBE0DBE53
S11301600F901F901FBE2F903F904F905F906F9005
S11301707F908F909F90AF90BF90CF90DF90EF9043
S1130180FF900F911F912F913F914F915F916F912C
S11301907F918F919F91AF91BF91CF91DF91EF911B
S11301A0FF91112418952D9AFECF2D98FECFE0E0F3
S11301B0F1E011921192E11587E0F807D1F7089563
S11301C01092A0008AE08093A10080ED97E09093C4
S11301D0A9008093A80082E0809372001092A50089
S11301E01092A4000895CF93DF93CDB7DEB7609744
S11301F00FB6F894DEBF0FBECDBF20E1E0E0F1E022
S1130200DE01119601900D922A95E1F72B813C8134
S1130210232B99F020E02F5F30E1239FF00111247C
S1130220E050FF4F30E1DE01119601900D923A95B6
S1130230E1F74B815C81452B71F76091010470E01B
S1130240AB01002456954795079456954795079416
S1130250542F402DFA01E25CFB4F9083818320915F
S113026001047A8369838B839C836BEB7AEA7E83B4
S11302706D8318861F82435E5B4F5A8749878B873D
S11302809C878DED9CEC9E878D878FEF9EEE988BDF
S11302908F8780E1289FD0011124A050BF4F80E1B7
S11302A0FE01319601900D928A95E1F72F5F20931C
S11302B0010460960FB6F894DEBF0FBECDBFDF9188
S11302C0CF9108950E94D700109200041092010467
S11302D0389A259A1092020481E991E00E94F30071
S11302E083ED90E00E94F30085ED90E00E94F3001E
S11302F00E94E0000E94A200809102048F5F80931C
S11303000204FACF90910104891750F4882341F034
S113031090E1899FF0011124E050FF4F1382128273
S11303200895F89480910104833059F482E00E9486
S1130330820183ED90E00E94F30085ED90E00E943D
S1130340F3007894EECFCF93DF93C0910104D0E013
S113035020910004822F90E00196BE010E94C40106
S1130360282FFC01FF27E295F295F07FFE27E07F1E
S1130370FE27E050FF4F82819381892B59F320930C
S11303800004DF91CF91089597FB072E16F4009493
S113039007D077FD09D00E94D80107FC05D03EF4B0
S11303A0909581959F4F0895709561957F4F08951D
S11303B0AA1BBB1B51E107C0AA1FBB1FA617B70787
S11303C010F0A61BB70B881F991F5A95A9F78095A3
S10F03D09095BC01CD010895F894FFCF76
S9030000FC
