S01A0000696E736572744F734E616D65486572654F532E737265630C
S11300000C945A000C946C000C946C000C946C00CE
S11300100C946C000C946C000C946C000C946C00AC
S11300200C946C000C946C000C946C000C946C009C
S11300300C946C000C946C000C946C000C946C008C
S11300400C946C000C946C000C946C000C946C007C
S11300500C946C000C946C000C946C000C946C006C
S11300600C946C000C946C000C946C000C946C005C
S11300700C946C000C946C000C946C000C946C004C
S11300800C946C000C946C000C946C000C946C003C
S11300900C946C000C946C000C946C000C946C002C
S11300A00C946C000C946C000C9470000C946C0018
S11300B00C946C0011241FBECFEFD8E0DEBFCDBF7F
S11300C021E0A0E0B1E001C01D92A230B207E1F747
S11300D00E94C6000C94D7000C9400001D9A089549
S11300E02F913F91609A18951D9A089581E0089583
S11300F01092A0008AE08093A10080ED97E0909395
S1130100A9008093A80082E08093720008950F9361
S11301101F93CF93DF93CDB7DEB72D970FB6F89427
S1130120DEBF0FBECDBFAC0190910101092F10E0DD
S11301308DE0989F9001112420503F4F8DE0F901EC
S1130140DE01119601900D928A95E1F71A830983D5
S11301505C834B837E836D8382E08F835B874A87D6
S11301608DE0FE013196D90101900D928A95E1F757
S11301709F5F909301012D960FB6F894DEBF0FBEDA
S1130180CDBFDF91CF911F910F910895689A259A61
S11301900E947800789466E770E084E790E00E941B
S11301A08700809100018F5F80930001FACFF8945B
S10501B0FFCF7B
S9030000FC
