:100000000C945A000C9464000C9464000C946400EA
:100010000C9464000C9464000C9464000C946400D0
:100020000C9464000C9464000C9464000C946400C0
:100030000C9464000C9464000C9464000C946400B0
:100040000C9464000C9464000C9464000C946400A0
:100050000C9464000C9464000C9464000C94640090
:100060000C9464000C9464000C9464000C94640080
:100070000C9464000C9464000C9464000C94640070
:100080000C9464000C9464000C9464000C94640060
:100090000C9464000C9464000C9464000C94640050
:1000A0000C9464000C9464000C946A000C9464003A
:1000B0000C94640011241FBECFEFD8E0DEBFCDBF8B
:1000C0000E9458010C9478010C9400001D9A089528
:1000D0000C9468001FB6FF93EF93DF93CF93BF9309
:1000E000AF939F938F937F936F935F934F933F93C0
:1000F0002F931F930F93FF92EF92DF92CF92BF92B5
:10010000AF929F928F927F926F925F924F923F92A7
:100110002F921F920F92E0E0F4E011912081EDB751
:10012000FEB7FF93EF9300E1109FE8E0F1E0E00DF0
:10013000F11D0F901F90019211921395121708F064
:100140001127E0E0F4E0108300E1109FE8E0F1E027
:10015000E00DF11D01900F9200800F921F900F9003
:100160001EBE0DBE0F901F901FBE2F903F904F9050
:100170005F906F907F908F909F90AF90BF90CF9047
:10018000DF90EF90FF900F911F912F913F914F9132
:100190005F916F917F918F919F91AF91BF91CF911F
:1001A000DF91EF91FF91112418952D9AFECF2D9894
:1001B000FECFE0E0F1E08BEB9AEA81939193E115B9
:1001C00027E0F207D1F708951092A0008AE080930B
:1001D000A10080ED97E09093A9008093A80082E0B1
:1001E000809372001092A5001092A4000895CF93FE
:1001F000DF93CDB7DEB760970FB6F894DEBF0FBEC2
:10020000CDBF2091010430E0F901E295F295F07F35
:10021000FE27E07FFE27E050FF4F40E1DE01119610
:1002200001900D924A95E1F7B90100247695679502
:100230000794769567950794762F602DFB01E25C15
:10024000FB4F90838183409101043A8329838B8300
:100250009C832BEB3AEA3E832D8322E030E0388703
:100260002F83635E7B4F7A8769878B879C878DEDB1
:100270009CEC9E878D878FEF9EEE988B8F8780E119
:10028000489FD0011124A050BF4F80E1FE0131965C
:1002900001900D928A95E1F74F5F409301046096BB
:1002A0000FB6F894DEBF0FBECDBFDF91CF9108959A
:1002B0000E94D9001092000410920104689A259AB5
:1002C0001092020485ED90E00E94F70087ED90E027
:1002D0000E94F7000E94E4007894E0910201F091FE
:1002E00003010995809102048F5F80930204FACF85
:0402F000F894FFCFB0
:00000001FF
